S012000044756D626C65646F6F722E7372656305
S11300000C9434000C9451000C9451000C94510045
S11300100C9451000C9451000C9451000C94510018
S11300200C9451000C946E020C9451000C945100E9
S11300300C9451000C94EB010C9451000C9451005D
S11300400C94E8030C9451000C9498040C94C6048A
S11300500C9451000C9451000C9451000C945100D8
S11300600C9451000C94510011241FBECFEFD8E022
S1130070DEBFCDBF12E0A0E0B1E0E8ECFAE002C0E0
S113008005900D92A832B107D9F722E0A8E2B2E0B8
S113009001C01D92A43BB207E1F70E94FF020C9439
S11300A062050C940000FC01408121E030E002C0B4
S11300B0220F331F6A95E2F7242B20830895FC0155
S11300C0808121E030E002C0220F331F6A95E2F7FD
S11300D0922F90958923808380818181282B21838D
S11300E00895FC01908121E030E002C0220F331F0B
S11300F06A95E2F72095292320830895FC01408125
S113010021E030E002C0220F331F6A95E2F7242B6E
S113011020830895FC01808190E002C09595879525
S11301206A95E2F78170089560E087E290E00E94AA
S1130130530061E087E290E00E94530062E087E2AE
S113014090E00E94530060E088E290E00E947E000C
S113015061E088E290E00E947E0062E088E290E044
S11301600E947E0066E087E290E00E945F0065E006
S113017087E290E00E945F0064E087E290E00E94E2
S11301805F0063E087E290E00E945F0008957F9241
S11301908F929F92AF92BF92CF92DF92EF92FF9293
S11301A00F931F93CF93DF930F2EF0E0EF2EF1E028
S11301B0FF2EF02D0F2EF7E0CF2EF1E0DF2EF02DE5
S11301C00F2EF3E0AF2EF1E0BF2EF02D68947724CC
S11301D075F807E011E060E088E290E00E947E009C
S11301E061E088E290E00E947E0062E088E290E0B4
S11301F00E947E00F70161917F0188E290E00E94F5
S113020071000F2EF3E08F2EF1E09F2EF02DE6010A
S1130210F40161914F0186E290E00E948A0081110D
S113022001C0788023968016910691F7F0E27F1240
S11302300CC08FEFC81AD80AEA14FB0461F60BC08D
S113024081E080932802872D09C0809128028823A9
S1130250B9F380E203C01092280280E2DF91CF91CB
S11302601F910F91FF90EF90DF90CF90BF90AF90D0
S11302709F908F907F900895299A85E08A95F1F751
S1130280000029980895CF93C82F662311F0289A67
S113029001C02898549A559A569A579A5F985E982E
S11302A05D985C98CC230CF45F9AC6FD5E9AC5FDFC
S11302B05D9AC4FD5C9A0E943C015F985E985D98CB
S11302C05C98C3FD5F9AC2FD5E9AC1FD5D9AC0FD54
S11302D05C9A0E943C015C9A5D9A5E9A5F9A87EBF5
S11302E09BE00197F1F700C00000CF91089560E012
S11302F00E9443010895611104C080580E9477014F
S11303000895613021F480540E9477010895623089
S113031021F48C560E94770108958C520E94770133
S1130320089581E00E947701089561E00E944301ED
S11303300895CF93DF93EC012196FC0180818823FB
S113034029F00E94950189918111FBCFDF91CF9112
S11303500895CF93C82F209A559A219A549A559A62
S1130360569A579A8FEF99EF0197F1F700C0000062
S11303705D9A5C9A0E943C018FE19EE40197F1F73B
S113038000C000000E943C018FEF90E00197F1F75C
S113039000C000000E943C018FEF90E00197F1F74C
S11303A000C000005C980E943C018FEF90E0019730
S11303B0F1F700C0000088E20E94770188E00E9403
S11303C077010E94910186E00E9477018C2F0E94A0
S11303D07701CF9108951F920F920FB60F921124B7
S11303E02F933F934F935F936F937F938F939F9339
S11303F0AF93BF93EF93FF93CF93DF9300D0CDB729
S1130400DEB780E290E29A83898380912E02811183
S113041003C010922D024DC0813029F580912D0228
S11304208F5F863018F480932D0204C010922D0241
S113043010922E0260E082E00E947B0189E191E04B
S11304400E94990190912D024AE0BE016F5F7F4F97
S113045026E030E0F901E91BF109CF010E942D05E6
S11304600E94990126C0823021F580912D028F5F70
S1130470843018F480932D0204C010922D0210923F
S11304802E0260E082E00E947B0189E191E00E94FB
S1130490990190912D024AE0BE016F5F7F4F24E0E5
S11304A030E0F901E91BF109CF010E942D050E94FA
S11304B099010F900F90DF91CF91FF91EF91BF9130
S11304C0AF919F918F917F916F915F914F913F91E8
S11304D02F910F900FBE0F901F9018951F920F929F
S11304E00FB60F9211242F933F934F935F936F9303
S11304F07F938F939F93AF93BF93EF93FF938091D9
S11305002C02811106C065E085E290E00E94710032
S113051029C0813099F465E085E290E00E947E0074
S1130520809129028F5F80932902809129028A3069
S1130530C9F41092290210922C0214C0823091F452
S113054065E085E290E00E947E00809129028F5F41
S11305508093290280912902823321F41092290286
S113056010922C02FF91EF91BF91AF919F918F91C7
S11305707F916F915F914F913F912F910F900FBE9B
S11305800F901F9018958FEF80931401E5E1F1E02F
S113059080E2808381838283838367E085E290E0C5
S11305A00E94710066E085E290E00E94710063E0C1
S11305B085E290E00E9471000E94910160E082E077
S11305C00E947B018AE291E00E94990161E084E04B
S11305D00E947B018CE391E00E94990162E081E03A
S11305E00E947B018AE491E00E94990163E081E02A
S11305F00E947B018EE591E00E94990108958CE0B0
S11306000E94A9010E94940067E084E290E00E94A5
S1130610530066E084E290E00E94530067E085E2C4
S113062090E00E94710066E085E290E00E94710013
S113063065E084E290E00E94530065E085E290E08A
S11306400E94710064E084E290E00E94530064E040
S113065085E290E00E94710063E084E290E00E94F1
S1130660530063E085E290E00E9471000E94C3029F
S113067085B58D7F85BD85B5846085BDEEE6F0E0EA
S1130680808181608083E1E8F0E080818C7F8083D9
S1130690808184608083EFE6F0E0808181608083E4
S11306A0E1EBF0E0808187608083E0E7F0E0808127
S11306B08160808389E090E00E94F0047894FFCF09
S11306C00E94910162E080E00E947B018EE691E04D
S11306D00E9499010895CF93DF93C82F63E085E2C8
S11306E090E00E947E0067E085E290E00E947E0038
S11306F082E080932C020E94910161E080E00E94DC
S11307007B0182E891E00E94990162E080E00E940E
S11307107B018FE891E00E9499018DE0C89FE00180
S11307201124CC51DE4FCE010E949901CE010E94CA
S11307301E0586E991E00E941E058CEA91E00E9464
S11307401E05DF91CF91089566E085E290E00E9456
S11307507E000E94910162E082E00E947B018FEAA8
S113076091E00E9499018AEB91E00E941E058CEAB7
S113077091E00E941E0508950F931F93CF93DF937A
S1130780AC01FC018081C8E1D2E008E212E061E042
S11307900FC0922F3D912191321306C021E0290F01
S11307A02430B9F79F3F71F42496C017D10749F05C
S11307B098818913F9CFDA011196FE013196962FAB
S11307C0E9CF9FEF892FDF91CF911F910F9108956A
S11307D01F920F920FB60F9211242F933F934F93B2
S11307E05F936F937F938F939F93AF93BF93EF9395
S11307F0FF930E94C70080931301809113018032FC
S113080019F081E080932C0280911301833261F40A
S113081080912B02811108C00E94600382E08093C2
S11308202B0280932E0219C0809113018A32A9F4FD
S113083080912B02811111C081E080932B0280935F
S11308402E0210922A020E94910161E082E00E942D
S11308507B0182ED91E00E94990180912B0281300D
S113086009F046C0809113018A32F9F08091130196
S11308708332D9F0809113018032B9F0E0912A02D9
S113088080911301F0E0EB5EFE4F808380912A0299
S113089062E0885F0E947B01809113010E949501B0
S11308A080912A028F5F80932A0280912E028823EE
S11308B021F080912A02843040F185E191E00E9488
S11308C0BC038093140110922E0210922D028F3FCC
S11308D019F40E94A40304C0843010F40E946B0332
S11308E010922A0282E080932B0280932E020DC084
S11308F080912B02823059F480912E02811107C01D
S113090010922B020E94C30202C080912B02FF911D
S1130910EF91BF91AF919F918F917F916F915F9173
S11309204F913F912F910F900FBE0F901F901895EC
S11309301F920F920FB60F9211242F938F939F93B0
S1130940EF93FF938091C0002091C6008C71E091D9
S11309503102EF5FEF7390913002E91739F0E093C1
S11309603102F0E0EC5CFD4F208301C082E0909105
S11309702F02892B80932F02FF91EF919F918F91EA
S11309802F910F900FBE0F901F9018951F920F92EA
S11309900FB60F9211248F939F93EF93FF9390912F
S11309A0330280913202981769F0E0913202EF5FCE
S11309B0EF73E0933202F0E0EC58FD4F80818093B6
S11309C0C60005C0E1ECF0E080818F7D8083FF915B
S11309D0EF919F918F910F900FBE0F901F901895DC
S11309E010923302109232021092310210923002AD
S11309F099231CF422E02093C00090789093C500C2
S1130A008093C40088E98093C10086E08093C2008B
S1130A100895209133022F5F2F739091320229178A
S1130A20E1F3E22FF0E0EC58FD4F80832093330292
S1130A30E1ECF0E08081806280830895CF93DF93BE
S1130A40EC018881882331F021960E94090589915F
S1130A508111FBCFDF91CF910895BB274A3031F448
S1130A60992322F4BDE2909581959F4F0C9439050A
S1130A70BB27FB015527AA27880F991FAA1FA41774
S1130A8010F0A41B83955051B9F7A05DAA3308F068
S1130A90A95DA193009779F7B111B1931192CB019C
S1130AA00C945205DC01FC01672F71917723E1F767
S1130AB0329704C07C916D9370836291AE17BF0727
S10B0AC0C8F30895F894FFCF78
S1130AC80001020605040331323334353637383928
S1130AD82A302320FF2D2D2D2D52656D61696E69F5
S1130AE86E672074696D653A200044756D626C65A3
S1130AF8646F6F7220776973686573004D61676905
S1130B0863616C204461797321002A202D2D3E20D5
S1130B18456E746572207468652070696E002320C0
S1130B282D2D3E20446F6F722042656C6C00446F1B
S1130B386F722062656C6C2069732072696E6765D8
S1130B486400436F72726563742070696E2E004886
S1130B58656C6C6F200020656E7465726564207422
S1130B686F2074686520726F6F6D21000D0A00573D
S1130B78726F6E672070696E2E0057726F6E6720F1
S1130B88617474656D707420746F20656E74657219
S1130B9821002D2D456E7465722074686520706976
S1130BA86E2D2D004D7220486172726D616E0000C9
S1130BB8004D7273204C65796C61000000004D7221
S1130BC8204261676C616D616300004D7220446569
S1130BD86D69726F72656E00313233343433323476
S10B0BE8313936323730333461
S9030000FC
