S012000044756D626C65646F6F722E7372656305
S11300000C9434000C9451000C9451000C94510045
S11300100C9451000C9451000C9451000C94510018
S11300200C9451000C947A020C9451000C945100DD
S11300300C9451000C94F7010C9451000C94510051
S11300400C943C050C9451000C94EC050C941A0689
S11300500C9451000C9451000C9451000C945100D8
S11300600C9451000C94510011241FBECFEFD8E022
S1130070DEBFCDBF12E0A0E0B1E0E0E7FDE002C0EA
S113008005900D92AC34B107D9F723E0ACE4B2E0AB
S113009001C01D92AA35B207E1F70E94D1030C9466
S11300A0B6060C940000FC01408121E030E002C05F
S11300B0220F331F6A95E2F7242B20830895FC0155
S11300C0808121E030E002C0220F331F6A95E2F7FD
S11300D0922F90958923808380818181282B21838D
S11300E00895FC01908121E030E002C0220F331F0B
S11300F06A95E2F72095292320830895FC01408125
S113010021E030E002C0220F331F6A95E2F7242B6E
S113011020830895FC01408121E030E002C0220FD9
S1130120331F6A95E2F7242720830895FC01808118
S113013090E002C0959587956A95E2F781700895DD
S113014060E087E290E00E94530061E087E290E083
S11301500E94530062E087E290E00E94530060E056
S113016088E290E00E947E0061E088E290E00E94D4
S11301707E0062E088E290E00E947E0066E087E212
S113018090E00E945F0065E087E290E00E945F00DB
S113019064E087E290E00E945F0063E087E290E021
S11301A00E945F0008957F928F929F92AF92BF92B8
S11301B0CF92DF92EF92FF920F931F93CF93DF932F
S11301C00F2EF0E0EF2EF1E0FF2EF02D0F2EF7E0D2
S11301D0CF2EF1E0DF2EF02D0F2EF3E0AF2EF1E065
S11301E0BF2EF02D6894772475F807E011E060E0E5
S11301F088E290E00E947E0061E088E290E00E9444
S11302007E0062E088E290E00E947E00F701619146
S11302107F0188E290E00E9471000F2EF3E08F2EA0
S1130220F1E09F2EF02DE601F40161914F0186E289
S113023090E00E949600811101C078802396801678
S1130240910691F7F0E27F120CC08FEFC81AD80A1A
S1130250EA14FB0461F60BC081E080934C02872D05
S113026009C080914C028823B9F380E203C0109244
S11302704C0280E2DF91CF911F910F91FF90EF909C
S1130280DF90CF90BF90AF909F908F907F90089514
S1130290299A85E08A95F1F7000029980895CF936B
S11302A0C82F662311F0289A01C02898549A559AA9
S11302B0569A579A5F985E985D985C98CC230CF494
S11302C05F9AC6FD5E9AC5FD5D9AC4FD5C9A0E9464
S11302D048015F985E985D985C98C3FD5F9AC2FD83
S11302E05E9AC1FD5D9AC0FD5C9A0E9448015C9AC9
S11302F05D9A5E9A5F9A87EB9BE00197F1F700C0E5
S11303000000CF91089560E00E944F0108956111AB
S113031004C080580E9483010895613021F4805400
S11303200E9483010895623021F48C560E94830157
S113033008958C520E948301089581E00E948301F4
S1130340089561E00E944F010895CF93DF93EC017B
S11303502196FC018081882329F00E94A1018991C2
S11303608111FBCFDF91CF910895CF93C82F209AAD
S1130370559A219A549A559A569A579A8FEF99EF0B
S11303800197F1F700C000005D9A5C9A0E94480151
S11303908FE19EE40197F1F700C000000E9448013C
S11303A08FEF90E00197F1F700C000000E94480130
S11303B08FEF90E00197F1F700C000005C980E9475
S11303C048018FEF90E00197F1F700C0000088E248
S11303D00E94830188E00E9483010E949D0186E0BF
S11303E00E9483018C2F0E948301CF9108951F9254
S11303F00F920FB60F9211242F933F934F935F9355
S11304006F937F938F939F93AF93BF93EF93FF93D8
S1130410CF93DF9300D0CDB7DEB780E290E29A832A
S1130420898380915402811103C0109253024DC0FC
S1130430813029F5809153028F5F863018F48093C0
S1130440530204C0109253021092540260E082E0FE
S11304500E94870189E191E00E94A50190915302D5
S11304604AE0BE016F5F7F4F26E030E0F901E91BEF
S1130470F109CF010E9481060E94A50126C08230A5
S113048021F5809153028F5F843018F480935302D6
S113049004C0109253021092540260E082E00E9461
S11304A0870189E191E00E94A501909153024AE0FD
S11304B0BE016F5F7F4F24E030E0F901E91BF109D1
S11304C0CF010E9481060E94A5010F900F90DF9139
S11304D0CF91FF91EF91BF91AF919F918F917F91B8
S11304E06F915F914F913F912F910F900FBE0F909D
S11304F01F9018951F920F920FB60F9211242F93ED
S11305003F934F935F936F937F938F939F93AF9397
S1130510BF93EF93FF938091520281110BC065E06A
S113052085E290E00E94710064E085E290E00E9420
S11305307100EAC08130A1F465E085E290E00E9498
S11305407E0080914D028F5F80934D0280914D0219
S11305508A3009F0D9C010924D0210925202D4C0D0
S11305608230A1F465E085E290E00E947E008091F3
S11305704D028F5F80934D0280914D02823309F0CA
S1130580C3C010924D0210925202BEC0833049F58E
S113059065E085E290E00E947E0080914D028F5FCD
S11305A080934D0220914D028DEC289F812D1124C2
S11305B0869586958695880F982F990F990F890FA0
S11305C0281305C065E085E290E00E948A008091CE
S11305D04D02823309F098C010924D0210925202DB
S11305E093C0843009F090C064E085E290E00E94FA
S11305F07E0080914D028F5F80934D0280914D0269
S11306008A3029F464E085E290E00E948A008091B7
S11306104D028F3029F464E085E290E00E948A0064
S113062080914D02843129F464E085E290E00E94D7
S11306308A0080914D028E3129F464E085E290E0D5
S11306400E948A0080914D02833229F464E085E29D
S113065090E00E948A0080914D02883229F464E07F
S113066085E290E00E948A0080914D02823329F451
S113067064E085E290E00E948A0080914D028C3310
S113068029F464E085E290E00E948A0080914D02A2
S1130690813429F464E085E290E00E948A0080912C
S11306A04D02863429F464E085E290E00E948A00D9
S11306B080914D02803529F464E085E290E00E9447
S11306C08A0080914D02853529F464E085E290E04A
S11306D00E948A0080914D028A3529F464E085E203
S11306E090E00E948A0080914D02843629F464E0EF
S11306F085E290E00E948A0080914D02843621F4C4
S113070010924D0210925202FF91EF91BF91AF915E
S11307109F918F917F916F915F914F913F912F9115
S11307200F900FBE0F901F9018958FEF80931401B8
S1130730E5E1F1E080E2808381838283838367E063
S113074085E290E00E94710066E085E290E00E94FC
S1130750710063E085E290E00E9471000E949D01B7
S113076060E082E00E9487018AE291E00E94A50194
S113077061E084E00E9487018CE391E00E94A5017E
S113078062E081E00E9487018AE491E00E94A50171
S113079063E081E00E9487018EE591E00E94A5015B
S11307A008958CE00E94B5010E94A00067E084E2F5
S11307B090E00E94530066E084E290E00E945300BF
S11307C067E085E290E00E94710066E085E290E0D7
S11307D00E94710065E084E290E00E94530065E0AD
S11307E085E290E00E94710064E084E290E00E945F
S11307F0530064E085E290E00E94710063E084E2CB
S113080090E00E94530063E085E290E00E94710052
S11308100E94950385B58D7F85BD85B5846085BDB2
S1130820EEE6F0E0808181608083E1E8F0E08081A1
S11308308C7F8083808184608083EFE6F0E0808118
S113084081608083E1EBF0E0808187608083E0E772
S1130850F0E080818160808389E090E00E9444061A
S11308607894FFCF84E0809352020E949D0162E05D
S113087080E00E9487018EE691E00E94A501089520
S11308800F931F93CF93DF9300D0CDB7DEB7082F1C
S113089080E290E29A83898363E085E290E00E949B
S11308A07E0067E085E290E00E947E0082E0809313
S11308B05202809151028F5F809351020E949D01E8
S11308C061E081E00E94870182E891E00E94A50135
S11308D062E081E00E9487018FE891E00E94A50117
S11308E08DE0089F80011124095F1D4FC8010E94FB
S11308F0A501C8010E94720686E991E00E94720671
S11309008CEA91E00E9472068FEA91E00E947206DE
S11309108CEA91E00E94720680EC91E00E947206DB
S1130920809151024AE0BE016F5F7F4F90E00E94C8
S113093081060E9472068CEA91E00E9472068AEC9B
S113094091E00E947206809150024AE0BE016F5FFE
S11309507F4F90E00E9481060E9472068CEA91E02B
S11309600E9472060F900F90DF91CF911F910F910B
S11309700895CF93DF9300D0CDB7DEB780E290E245
S11309809A83898366E085E290E00E947E0083E09A
S113099080935202809150028F5F809350020E9494
S11309A09D0162E082E00E94870182ED91E00E9455
S11309B0A5018DED91E00E9472068CEA91E00E94FF
S11309C072068FEA91E00E9472068CEA91E00E941E
S11309D0720680EC91E00E947206809151024AE016
S11309E0BE016F5F7F4F90E00E9481060E947206F5
S11309F08CEA91E00E9472068AEC91E00E947206F1
S1130A00809150024AE0BE016F5F7F4F90E00E94E8
S1130A1081060E9472068CEA91E00E9472060F9091
S1130A200F90DF91CF9108951F93CF93DF93BC0173
S1130A30FC011081CBE3D2E030E0AC014C5F5F4FAE
S1130A400EC021919D91291306C0E417F507C9F73B
S1130A50832F3F3F69F43F5F2496343041F09881FF
S1130A601913F9CFFB013196DE011196EACF8FEF0E
S1130A70DF91CF911F9108951F920F920FB60F929D
S1130A8011242F933F934F935F936F937F938F938F
S1130A909F93AF93BF93EF93FF930E94D3008093F0
S1130AA0130180911301803219F081E08093520286
S1130AB080911301833261F480914F02811108C047
S1130AC00E94320482E080934F028093540219C042
S1130AD0809113018A32A9F480914F02811111C0CF
S1130AE081E080934F028093540210924E020E9440
S1130AF09D0161E082E00E94870185EF91E00E9400
S1130B00A50180914F02813009F046C08091130104
S1130B108A32F9F0809113018332D9F08091130164
S1130B208032B9F0E0914E0280911301F0E0EB5E67
S1130B30FE4F808380914E0262E0885F0E948701AD
S1130B40809113010E94A10180914E028F5F8093D6
S1130B504E0280915402882321F080914E02843009
S1130B6040F185E191E00E941405809314011092F4
S1130B705402109253028F3F19F40E94B90404C026
S1130B80843010F40E94400410924E0282E080935C
S1130B904F02809354020DC080914F02823059F469
S1130BA080915402811107C010924F020E94950354
S1130BB002C080914F02FF91EF91BF91AF919F913D
S1130BC08F917F916F915F914F913F912F910F90F2
S1130BD00FBE0F901F9018951F920F920FB60F9291
S1130BE011242F938F939F93EF93FF938091C000D1
S1130BF02091C6008C71E0915702EF5FEF779091DE
S1130C005602E91739F0E0935702F0E0E65AFD4F37
S1130C10208301C082E090915502892B8093550274
S1130C20FF91EF919F918F912F910F900FBE0F9095
S1130C301F9018951F920F920FB60F9211248F9345
S1130C409F93EF93FF9390915902809158029817C4
S1130C5069F0E0915802EF5FEF77E0935802F0E01B
S1130C60E652FD4F80818093C60005C0E1ECF0E0C0
S1130C7080818F7D8083FF91EF919F918F910F9061
S1130C800FBE0F901F90189510925902109258029F
S1130C90109257021092560299231CF422E02093DA
S1130CA0C00090789093C5008093C40088E9809335
S1130CB0C10086E08093C2000895209159022F5FFD
S1130CC02F77909158022917E1F3E22FF0E0E652D2
S1130CD0FD4F808320935902E1ECF0E08081806233
S1130CE080830895CF93DF93EC018881882331F0CA
S1130CF021960E945D0689918111FBCFDF91CF91EE
S1130D000895BB274A3031F4992322F4BDE290952B
S1130D1081959F4F0C948D06BB27FB015527AA276D
S1130D20880F991FAA1FA41710F0A41B8395505174
S1130D30B9F7A05DAA3308F0A95DA193009779F7EC
S1130D40B111B1931192CB010C94A606DC01FC0104
S1130D50672F71917723E1F7329704C07C916D93EB
S1130D6070836291AE17BF07C8F30895F894FFCF5C
S1130D70000102060504033132333435363738397D
S1130D802A302320FF2020202052656D61696E697E
S1130D906E672074696D653A200044756D626C65F8
S1130DA0646F6F7220776973686573004D6167695A
S1130DB063616C204461797321002A202D2D3E202B
S1130DC0456E746572207468652070696E00232016
S1130DD02D2D3E20446F6F722042656C6C00446F71
S1130DE06F722062656C6C2069732072696E67652E
S1130DF06400436F72726563742070696E2E0048DC
S1130E00656C6C6F200020656E7465726564207477
S1130E106F2074686520726F6F6D21000D0A005495
S1130E206F74616C20417474656D7074733A200042
S1130E30436F72726563743A200057726F6E673A3B
S1130E40200057726F6E672070696E2E0057726FA4
S1130E506E6720617474656D707420746F20656EA4
S1130E6074657221002D2D456E7465722074686559
S1130E702070696E2D2D004D7220486172726D6173
S1130E806E0000004D7273204C65796C61000000A7
S1130E90004D72204261676C616D616300004D72A8
S1130EA02044656D69726F72656E0031323334347B
S10F0EB0333234313936323730333400F9
S9030000FC
