:100000000C9434000C9451000C9451000C94510049
:100010000C9451000C9451000C9451000C9451001C
:100020000C9451000C947E020C9451000C945100DD
:100030000C9451000C94FB010C9451000C94510051
:100040000C9468050C9451000C9418060C94460608
:100050000C9451000C9451000C9451000C945100DC
:100060000C9451000C94510011241FBECFEFD8E026
:10007000DEBFCDBF12E0A0E0B1E0E8ECFDE002C0E1
:1000800005900D92AC35B107D9F723E0ACE5B2E0AD
:1000900001C01D92AA36B207E1F70E94D5030C9465
:1000A000E2060C940000FC01408121E030E002C037
:1000B000220F331F6A95E2F7242B20830895FC0159
:1000C000808121E030E002C0220F331F6A95E2F701
:1000D000922F90958923808380818181282B218391
:1000E0000895FC01908121E030E002C0220F331F0F
:1000F0006A95E2F72095292320830895FC01408129
:1001000021E030E002C0220F331F6A95E2F7242B72
:1001100020830895FC01408121E030E002C0220FDD
:10012000331F6A95E2F7242720830895FC0180811C
:1001300090E002C0959587956A95E2F781700895E1
:1001400060E087E290E00E94530061E087E290E087
:100150000E94530062E087E290E00E94530060E05A
:1001600088E290E00E947E0061E088E290E00E94D8
:100170007E0062E088E290E00E947E0066E087E216
:1001800090E00E945F0065E087E290E00E945F00DF
:1001900064E087E290E00E945F0063E087E290E025
:1001A0000E945F0008957F928F929F92AF92BF92BC
:1001B000CF92DF92EF92FF920F931F93CF93DF9333
:1001C0000F2EF0E0EF2EF1E0FF2EF02D0F2EF7E0D6
:1001D000CF2EF1E0DF2EF02D0F2EF3E0AF2EF1E069
:1001E000BF2EF02D6894772475F807E011E060E0E9
:1001F00088E290E00E947E0061E088E290E00E9448
:100200007E0062E088E290E00E947E00F70161914A
:100210007F0188E290E00E9471000F2EF3E08F2EA4
:10022000F1E09F2EF02DE601F40161914F0186E28D
:1002300090E00E949600811101C07880239680167C
:10024000910691F7F0E27F120CC08FEFC81AD80A1E
:10025000EA14FB0461F60BC081E080935C02872DF9
:1002600009C080915C028823B9F380E203C0109238
:100270005C0280E2DF91CF911F910F91FF90EF9090
:10028000DF90CF90BF90AF909F908F907F90089518
:10029000299A85E08A95F1F7000029980895CF936F
:1002A000C82F662311F0289A01C02898549A559AAD
:1002B000569A579A5F985E985D985C98CC230CF498
:1002C0005F9AC6FD5E9AC5FD5D9AC4FD5C9A0E9468
:1002D00048015F985E985D985C98C3FD5F9AC2FD87
:1002E0005E9AC1FD5D9AC0FD5C9A0E9448015C9ACD
:1002F0005D9A5E9A5F9A87EB9BE00197F1F700C0E9
:100300000000CF91089560E00E944F01089561E0E0
:100310000E944F010895611104C080580E9483011A
:100320000895613021F480540E9483010895623061
:1003300021F48C560E94830108958C520E948301FF
:10034000089581E00E948301089561E00E944F01B9
:100350000895CF93DF93EC012196FC0180818823DF
:1003600029F00E94A50189918111FBCFDF91CF91E6
:100370000895CF93C82F209A559A219A549A559A46
:10038000569A579A8FEF99EF0197F1F700C0000046
:100390005D9A5C9A0E9448018FE19EE40197F1F713
:1003A00000C000000E9448018FEF90E00197F1F734
:1003B00000C000000E9448018FEF90E00197F1F724
:1003C00000C000005C980E9448018FEF90E0019708
:1003D000F1F700C0000088E20E94830188E00E94DB
:1003E00083010E94A10186E00E9483018C2F0E945C
:1003F0008301CF9108951F920F920FB60F9211248F
:100400002F933F934F935F936F937F938F939F931C
:10041000AF93BF93EF93FF93CF93DF9300D0CDB70C
:10042000DEB780E290E29A83898380916402811131
:1004300003C0109263024DC0813029F580916302A0
:100440008F5F863018F48093630204C010926302B9
:100450001092640260E082E00E948B0189E291E0E8
:100460000E94A901909163024AE0BE016F5F7F4F35
:1004700026E030E0F901E91BF109CF010E94AD0649
:100480000E94A90126C0823021F5809163028F5F0E
:10049000843018F48093630204C0109263021092B7
:1004A000640260E082E00E948B0189E291E00E9498
:1004B000A901909163024AE0BE016F5F7F4F24E083
:1004C00030E0F901E91BF109CF010E94AD060E945D
:1004D000A9010F900F90DF91CF91FF91EF91BF9104
:1004E000AF919F918F917F916F915F914F913F91CC
:1004F0002F910F900FBE0F901F9018951F920F9283
:100500000FB60F9211242F933F934F935F936F93E6
:100510007F938F939F93AF93BF93EF93FF938091BC
:10052000620281110BC065E085E290E00E947100DB
:1005300064E085E290E00E947100EAC08130A1F49D
:1005400065E085E290E00E947E0080915D028F5F11
:1005500080935D0280915D028A3009F0D9C01092CB
:100560005D0210926202D4C08230A1F465E085E29F
:1005700090E00E947E0080915D028F5F80935D021B
:1005800080915D02823309F0C3C010925D02109227
:100590006202BEC0833049F565E085E290E00E94CA
:1005A0007E0080915D028F5F80935D0220915D02ED
:1005B0008DEC289F812D1124869586958695880F30
:1005C000982F990F990F890F281305C065E085E2D0
:1005D00090E00E948A0080915D02823309F098C009
:1005E00010925D021092620293C0843009F090C0B4
:1005F00064E085E290E00E947E0080915D028F5F62
:1006000080935D0280915D028A3029F464E085E286
:1006100090E00E948A0080915D028F3029F464E0AE
:1006200085E290E00E948A0080915D02843129F485
:1006300064E085E290E00E948A0080915D028E3144
:1006400029F464E085E290E00E948A0080915D02D6
:10065000833229F464E085E290E00E948A00809170
:100660005D02883229F464E085E290E00E948A000D
:1006700080915D02823329F464E085E290E00E947B
:100680008A0080915D028C3329F464E085E290E079
:100690000E948A0080915D02813429F464E085E241
:1006A00090E00E948A0080915D02863429F464E023
:1006B00085E290E00E948A0080915D02803529F4F5
:1006C00064E085E290E00E948A0080915D028535B9
:1006D00029F464E085E290E00E948A0080915D0246
:1006E0008A3529F464E085E290E00E948A008091D6
:1006F0005D02843629F464E085E290E00E948A007D
:1007000080915D02843621F410925D0210926202A3
:10071000FF91EF91BF91AF919F918F917F916F91D9
:100720005F914F913F912F910F900FBE0F901F90AF
:1007300018958FEF80932401E5E2F1E080E2808359
:1007400081838283838367E085E290E00E94710069
:1007500066E085E290E00E94710063E085E290E04F
:100760000E9471000E94A10160E082E00E948B0162
:100770008AE391E00E94A90161E084E00E948B017C
:100780008CE491E00E94A90162E081E00E948B016B
:100790008AE591E00E94A90163E081E00E948B015B
:1007A0008EE691E00E94A90108958CE00E94B901B3
:1007B0000E94A00080E40E948301C4E1D1E004E231
:1007C00011E089910E948701C017D107D1F780E815
:1007D0000E94830167E084E290E00E94530066E09B
:1007E00084E290E00E94530067E085E290E00E947E
:1007F000710066E085E290E00E94710065E084E2AD
:1008000090E00E94530065E085E290E00E94710054
:1008100064E084E290E00E94530064E085E290E0AE
:100820000E94710063E084E290E00E94530063E064
:1008300085E290E00E9471000E94990385B58D7F4A
:1008400085BD85B5846085BDEEE6F0E08081816080
:100850008083E1E8F0E080818C7F80838081846008
:100860008083EFE6F0E0808181608083E1EBF0E05F
:10087000808187608083E0E7F0E080818160808311
:1008800089E090E00E9470067894FFCF84E0809326
:1008900062020E94A10162E082E00E948B018EE769
:1008A00091E00E94A90163E082E00E948B018BE845
:1008B00091E00E94A90181E00E94A50181E00E94CF
:1008C000A50108950F931F93CF93DF9300D0CDB769
:1008D000DEB7082F80E290E29A83898363E085E2A5
:1008E00090E00E947E0067E085E290E00E947E003A
:1008F00082E080936202809161028F5F8093610247
:100900000E94A10161E082E00E948B0184E991E0F4
:100910000E94A90162E082E00E948B0180E00E94B7
:10092000A50181EA91E00E94A90180E00E94A50151
:1009300063E082E00E948B018DE0089F800111241A
:10094000085E1D4FC8010E94A901C8010E949E06B1
:1009500087EA91E00E949E068DEB91E00E949E0640
:1009600080EC91E00E949E068DEB91E00E949E0635
:1009700081ED91E00E949E06809161024AE0BE01F5
:100980006F5F7F4F90E00E94AD060E949E068DEB48
:1009900091E00E949E068BED91E00E949E06809160
:1009A00060024AE0BE016F5F7F4F90E00E94AD069B
:1009B0000E949E068DEB91E00E949E060F900F9084
:1009C000DF91CF911F910F910895CF93DF9300D0C6
:1009D000CDB7DEB780E290E29A83898366E085E254
:1009E00090E00E947E0083E080936202809160022A
:1009F0008F5F809360020E94A10162E082E00E940A
:100A00008B0183EE91E00E94A9018EEE91E00E949D
:100A10009E068DEB91E00E949E0680EC91E00E9484
:100A20009E068DEB91E00E949E0681ED91E00E9472
:100A30009E06809161024AE0BE016F5F7F4F90E0A9
:100A40000E94AD060E949E068DEB91E00E949E06DC
:100A50008BED91E00E949E06809160024AE0BE010B
:100A60006F5F7F4F90E00E94AD060E949E068DEB67
:100A700091E00E949E060F900F90DF91CF91089514
:100A80001F93CF93DF93BC01FC011081CCE4D2E033
:100A900030E0AC014C5F5F4F0EC021919D91291356
:100AA00006C0E417F507C9F7832F3F3F69F43F5F9E
:100AB0002496343041F098811913F9CFFB01319617
:100AC000DE011196EACF8FEFDF91CF911F9108954C
:100AD0001F920F920FB60F9211242F933F934F93B3
:100AE0005F936F937F938F939F93AF93BF93EF9396
:100AF000FF930E94D30080931301809113018032F1
:100B000019F081E08093620280911301833261F4D5
:100B100080915F02811108C00E94460482E08093A8
:100B20005F028093640219C0809113018A32A9F494
:100B300080915F02811111C081E080935F028093F8
:100B4000640210925E020E94A10161E082E00E94B4
:100B50008B0186E092E00E94A90180915F028130C2
:100B600009F046C0809113018A32F9F08091130197
:100B70008332D9F0809113018032B9F0E0915E02A6
:100B800080911301F0E0EB5DFE4F808380915E0267
:100B900062E0885F0E948B01809113010E94A50191
:100BA00080915E028F5F80935E0280916402882351
:100BB00021F080915E02843040F185E291E00E9454
:100BC00040058093240110926402109263028F3FCB
:100BD00019F40E94E50404C0843010F40E946204F9
:100BE00010925E0282E080935F02809364020DC0E7
:100BF00080915F02823059F480916402811107C0B4
:100C000010925F020E94990302C080915F02FF91DF
:100C1000EF91BF91AF919F918F917F916F915F9174
:100C20004F913F912F910F900FBE0F901F901895ED
:100C30001F920F920FB60F9211242F938F939F93B1
:100C4000EF93FF938091C0002091C6008C71E091DA
:100C50006702EF5FEF7790916602E91739F0E09352
:100C60006702F0E0E659FD4F208301C082E09091D9
:100C70006502892B80936502FF91EF919F918F917F
:100C80002F910F900FBE0F901F9018951F920F92EB
:100C90000FB60F9211248F939F93EF93FF93909130
:100CA000690280916802981769F0E0916802EF5F2D
:100CB000EF77E0936802F0E0E651FD4F808180938A
:100CC000C60005C0E1ECF0E080818F7D8083FF915C
:100CD000EF919F918F910F900FBE0F901F901895DD
:100CE00010926902109268021092670210926602D6
:100CF00099231CF422E02093C00090789093C500C3
:100D00008093C40088E98093C10086E08093C2008C
:100D10000895209169022F5F2F779091680229171B
:100D2000E1F3E22FF0E0E651FD4F8083209369026A
:100D3000E1ECF0E08081806280830895CF93DF93BF
:100D4000EC018881882331F021960E9489068991DF
:100D50008111FBCFDF91CF910895BB274A3031F449
:100D6000992322F4BDE2909581959F4F0C94B9068A
:100D7000BB27FB015527AA27880F991FAA1FA41775
:100D800010F0A41B83955051B9F7A05DAA3308F069
:100D9000A95DA193009779F7B111B1931192CB019D
:100DA0000C94D206DC01FC01672F71917723E1F7E7
:100DB000329704C07C916D9370836291AE17BF0728
:080DC000C8F30895F894FFCF79
:100DC8000001020605040331323334353637383929
:100DD8002A30232000000A1F0E04000000040E0E13
:100DE8001F040000FF2020202052656D61696E6994
:100DF8006E672074696D653A200044756D626C6594
:100E0800646F6F7220776973686573004D616769F5
:100E180063616C204461797321002A202D2D3E20C6
:100E2800456E746572207468652070696E002320B1
:100E38002D2D3E20446F6F722042656C6C00446F0C
:100E48006F722062656C6C2069730072696E6765E9
:100E5800642E2000436F72726563742070696E2E71
:100E68000048656C6C6F0020656E7465726564205F
:100E7800746F2074686520726F6F6D21000D0A0011
:100E8800546F74616C20417474656D7074733A208A
:100E980000436F72726563743A200057726F6E6711
:100EA8003A200057726F6E672070696E2E00577275
:100EB8006F6E6720617474656D707420746F20653F
:100EC8006E74657221002D2D456E746572207468EC
:100ED800652070696E2D2D004D7220486172726D0B
:100EE800616E0000004D7273204C65796C610000E2
:100EF80000004D72204261676C616D616300004DB6
:100F0800722044656D69726F72656E0031323334D8
:0C0F180034333234313936323730333460
:00000001FF
