:100000000C9434000C9451000C9451000C94510049
:100010000C9451000C9451000C9451000C9451001C
:100020000C9451000C9451000C9451000C9451000C
:100030000C9451000C94EB010C9451000C94510061
:100040000C9455030C9451000C94E2030C9410048E
:100050000C9451000C9451000C9451000C945100DC
:100060000C9451000C94510011241FBECFEFD8E026
:10007000DEBFCDBF12E0A0E0B1E0ECE5F9E002C0E8
:1000800005900D92AE30B107D9F722E0AEE0B2E0B4
:1000900001C01D92A839B207E1F70E949A020C94A0
:1000A000AC040C940000FC01408121E030E002C06F
:1000B000220F331F6A95E2F7242B20830895FC0159
:1000C000808121E030E002C0220F331F6A95E2F701
:1000D000922F90958923808380818181282B218391
:1000E0000895FC01908121E030E002C0220F331F0F
:1000F0006A95E2F72095292320830895FC01408129
:1001000021E030E002C0220F331F6A95E2F7242B72
:1001100020830895FC01808190E002C09595879529
:100120006A95E2F78170089560E087E290E00E94AE
:10013000530061E087E290E00E94530062E087E2B2
:1001400090E00E94530060E088E290E00E947E0010
:1001500061E088E290E00E947E0062E088E290E048
:100160000E947E0066E087E290E00E945F0065E00A
:1001700087E290E00E945F0064E087E290E00E94E6
:100180005F0063E087E290E00E945F0008957F9245
:100190008F929F92AF92BF92CF92DF92EF92FF9297
:1001A0000F931F93CF93DF930F2EF0E0EF2EF1E02C
:1001B000FF2EF02D0F2EF7E0CF2EF1E0DF2EF02DE9
:1001C0000F2EF3E0AF2EF1E0BF2EF02D68947724D0
:1001D00075F807E011E060E088E290E00E947E00A0
:1001E00061E088E290E00E947E0062E088E290E0B8
:1001F0000E947E00F70161917F0188E290E00E94F9
:1002000071000F2EF3E08F2EF1E09F2EF02DE6010E
:10021000F40161914F0186E290E00E948A00811111
:1002200001C0788023968016910691F7F0E27F1244
:100230000CC08FEFC81AD80AEA14FB0461F60BC091
:1002400081E080930E02872D09C080910E028823E1
:10025000B9F380E203C010920E0280E2DF91CF91E9
:100260001F910F91FF90EF90DF90CF90BF90AF90D4
:100270009F908F907F900895299A85E08A95F1F755
:10028000000029980895CF93C82F662311F0289A6B
:1002900001C02898549A559A569A579A5F985E9832
:1002A0005D985C98CC230CF45F9AC6FD5E9AC5FD00
:1002B0005D9AC4FD5C9A0E943C015F985E985D98CF
:1002C0005C98C3FD5F9AC2FD5E9AC1FD5D9AC0FD58
:1002D0005C9A0E943C015C9A5D9A5E9A5F9A87EBF9
:1002E0009BE00197F1F700C00000CF91089560E016
:1002F0000E9443010895611104C080580E94770153
:100300000895613021F480540E947701089562308D
:1003100021F48C560E94770108958C520E94770137
:10032000089581E00E947701089561E00E944301F1
:100330000895CF93DF93EC012196FC0180818823FF
:1003400029F00E94950189918111FBCFDF91CF9116
:100350000895CF93C82F209A559A219A549A559A66
:10036000569A579A8FEF99EF0197F1F700C0000066
:100370005D9A5C9A0E943C018FE19EE40197F1F73F
:1003800000C000000E943C018FEF90E00197F1F760
:1003900000C000000E943C018FEF90E00197F1F750
:1003A00000C000005C980E943C018FEF90E0019734
:1003B000F1F700C0000088E20E94770188E00E9407
:1003C00077010E94910186E00E9477018C2F0E94A4
:1003D0007701CF9108951F920F920FB60F921124BB
:1003E0002F933F934F935F936F937F938F939F933D
:1003F000AF93BF93EF93FF93CF93DF9300D0CDB72D
:10040000DEB780E290E29A83898380911202813084
:10041000A9F580910F028F5F80930F0280910F02E8
:10042000863020F010920F021092120260E082E0FB
:100430000E947B0189E191E00E94990180910F0265
:10044000882389F090910F024AE0BE016F5F7F4FD1
:1004500026E030E0F901E91BF109CF010E947704A1
:100460000E9499010BC080910F024AE0BE016F5FAC
:100470007F4F90E00E9477040E94990180911202C0
:100480004AE0BE016F5F7F4F90E00E9477040E94B8
:1004900068040F900F90DF91CF91FF91EF91BF9182
:1004A000AF919F918F917F916F915F914F913F910C
:1004B0002F910F900FBE0F901F9018958FEF809384
:1004C0001401E5E1F1E080E280838183828383830C
:1004D00067E085E290E00E94710066E085E290E0CE
:1004E0000E94710063E084E290E00E9471000E942B
:1004F000910160E082E00E947B018AE291E00E942B
:10050000990161E084E00E947B018CE391E00E940C
:10051000990162E081E00E947B018AE491E00E94FF
:10052000990163E081E00E947B018EE591E00E94E9
:10053000990108958CE00E94A9010E94940067E04F
:1005400084E290E00E94530066E084E290E00E9422
:10055000530067E085E290E00E94710066E085E26A
:1005600090E00E94710065E084E290E00E945300F8
:1005700065E085E290E00E94710064E084E290E032
:100580000E94530064E085E290E00E94710063E005
:1005900084E290E00E94530063E085E290E00E94D4
:1005A00071000E945E0285B58D7F85BD85B5846032
:1005B00085BDEEE6F0E0808181608083E1E8F0E0D7
:1005C00080818C7F8083808184608083EFE6F0E08F
:1005D00080818160808389E090E00E943A04789471
:1005E000FFCFCF93C82F63E085E290E00E947E00AA
:1005F00067E085E290E00E947E000E94910162E047
:1006000082E00E947B018EE691E00E9499012DE03C
:10061000C29FC001112487539E4F0E9468048BE73C
:1006200091E00E94680481E991E00E946804CF9102
:10063000089566E085E290E00E947E000E949101AC
:1006400062E082E00E947B0184E991E00E949901CE
:100650008FE991E00E94680481E991E00E946804BA
:1006600008950F931F93CF93C82F6DEF71E00DE0A6
:1006700012E05FEF11C041913D91431302C0822F00
:1006800001C0852F2F5F2430B1F78F3F51F46C5F8D
:100690007F4F0617170729F0EC2FF92FDB0120E019
:1006A000EACFCF911F910F9108951F920F920FB62D
:1006B0000F9211242F933F934F935F936F937F93E8
:1006C0008F939F93AF93BF93EF93FF930E94C700C5
:1006D0008093130180911301833221F480911102E0
:1006E0008823C9F0809113018A32A9F48091110204
:1006F000811111C081E08093110280931202109247
:1007000010020E94910161E082E00E947B0187EB70
:1007100091E00E94990180911102813019F5809138
:1007200013018032F9F0809113018A32D9F080915F
:1007300013018332B9F0E091100280911301F0E0CF
:10074000EB5EFE4F80838091100262E0885F0E9422
:100750007B01809113010E949501809110028F5FAF
:100760008093100280911202882321F08091100260
:100770008430B8F0109211021092100285E191E0DD
:100780000E943103809314018F3F29F410921202CA
:100790000E94190306C0843020F4109212020E94B5
:1007A000F102FF91EF91BF91AF919F918F917F9156
:1007B0006F915F914F913F912F910F900FBE0F90CE
:1007C0001F9018951F920F920FB60F9211242F931E
:1007D0008F939F93EF93FF938091C0002091C60069
:1007E0008C71E0911502EF5FEF7390911402E9179D
:1007F00039F0E0931502F0E0E85EFD4F208301C080
:1008000082E090911302892B80931302FF91EF9164
:100810009F918F912F910F900FBE0F901F90189561
:100820001F920F920FB60F9211248F939F93EF9305
:10083000FF939091170280911602981769F0E0914A
:100840001602EF5FEF73E0931602F0E0E85AFD4FF7
:1008500080818093C60005C0E1ECF0E080818F7D4F
:100860008083FF91EF919F918F910F900FBE0F901A
:100870001F901895109217021092160210921502EE
:100880001092140299231CF422E02093C000907867
:100890009093C5008093C40088E98093C10086E0EE
:1008A0008093C2000895209117022F5F2F739091BB
:1008B00016022917E1F3E22FF0E0E85AFD4F80839A
:1008C00020931702E1ECF0E080818062808308953C
:1008D000CF93DF93EC018881882331F021960E9429
:1008E000530489918111FBCFDF91CF910895BB27EC
:1008F0004A3031F4992322F4BDE2909581959F4FBF
:100900000C948304BB27FB015527AA27880F991F46
:10091000AA1FA41710F0A41B83955051B9F7A05D2E
:10092000AA3308F0A95DA193009779F7B111B193AB
:100930001192CB010C949C04DC01FC01672F719196
:100940007723E1F7329704C07C916D9370836291B5
:0C095000AE17BF07C8F30895F894FFCF5E
:10095C000001020605040331323334353637383999
:10096C002A302320FF2D2D2D2D52656D61696E6966
:10097C006E672074696D653A200044756D626C6514
:10098C00646F6F7220776973686573004D61676976
:10099C0063616C204461797321002A202D2D3E2047
:1009AC00456E746572207468652070696E00232032
:1009BC002D2D3E20446F6F722042656C6C00436F8E
:1009CC0072726563742070696E2E0020656E74659A
:1009DC0072656420746F2074686520726F6F6D216E
:1009EC00000D0A0057726F6E672070696E2E0057EB
:1009FC00726F6E6720617474656D707420746F20F3
:100A0C00656E74657221002D2D456E7465722074AF
:100A1C0068652070696E2D2D004D722048617272D0
:100A2C006D616E0000004D7273204C65796C610035
:100A3C000000004D72204261676C616D61630000C3
:100A4C004D722044656D69726F72656E0031323380
:0E0A5C003434333234313936323730333400EB
:00000001FF
